S00C0000534146452E73726563F9
S11300000C942A000C9447000C9447000C9447006D
S11300100C9447000C9447000C9447000C94470040
S11300200C9447000C9447000C9447000C94470030
S11300300C9447000C9447000C9447000C94470020
S11300400C9447000C9447000C9447000C94470010
S11300500C94470011241FBECFE5D8E0DEBFCDBF0E
S113006010E0A0E6B0E0E0E2FEE002C005900D92F0
S1130070AA3DB107D9F710E0AAEDB0E001C01D9286
S1130080AE3DB107E1F70E94AD050C940E070C9448
S11300900000843409F43DC0853440F48234F9F01E
S11300A0833450F5813409F040C00CC08236B9F075
S11300B0833618F48136C9F505C08336E9F08436F1
S11300C0A1F527C02AB381E090E0AC0102C0440F3F
S11300D0551F6A95E2F7BA01622B6ABB089527B3EC
S11300E081E090E0AC0102C0440F551F6A95E2F72D
S11300F0BA01622B67BB089524B381E090E0AC01A0
S113010002C0440F551F6A95E2F7BA01622B64BB23
S1130110089521B381E090E0AC0102C0440F551F63
S11301206A95E2F7BA01622B61BB0895843409F43D
S113013071C0853448F4823499F1833408F04DC099
S1130140813409F083C00FC0823651F1833620F424
S1130150813609F07BC007C0833609F43EC084367B
S113016009F074C057C0413069F42BB381E090E0CA
S1130170AC0102C0440F551F6A95E2F7BA01622B25
S11301806BBB08952BB381E090E0AC0102C0440F37
S1130190551F6A95E2F7BA01609562236BBB089517
S11301A0413069F428B381E090E0AC0102C0440F0F
S11301B0551F6A95E2F7BA01622B68BB089528B30C
S11301C081E090E0AC0102C0440F551F6A95E2F74C
S11301D0BA016095622368BB0895413069F425B380
S11301E081E090E0AC0102C0440F551F6A95E2F72C
S11301F0BA01622B65BB089525B381E090E0AC01A0
S113020002C0440F551F6A95E2F7BA016095622354
S113021065BB0895413069F422B381E090E0AC01FC
S113022002C0440F551F6A95E2F7BA01622B62BB04
S1130230089522B381E090E0AC0102C0440F551F41
S11302406A95E2F7BA016095622362BB089584342B
S113025009F471C0853448F4823499F1833408F088
S11302604DC0813409F083C00FC0823651F183360A
S113027020F4813609F07BC007C0833609F43EC000
S1130280843609F074C057C0413069F42AB381E060
S113029090E0AC0102C0440F551F6A95E2F7BA0121
S11302A0622B6ABB08952AB381E090E0AC0102C0DE
S11302B0440F551F6A95E2F7BA01609562236ABB41
S11302C00895413069F427B381E090E0AC0102C0A5
S11302D0440F551F6A95E2F7BA01622B67BB089574
S11302E027B381E090E0AC0102C0440F551F6A952A
S11302F0E2F7BA016095622367BB0895413069F45F
S113030024B381E090E0AC0102C0440F551F6A950C
S1130310E2F7BA01622B64BB089524B381E090E054
S1130320AC0102C0440F551F6A95E2F7BA0160950B
S1130330622364BB0895413069F421B381E090E005
S1130340AC0102C0440F551F6A95E2F7BA01622B53
S113035061BB089521B381E090E0AC0102C0440F79
S1130360551F6A95E2F7BA016095622361BB08954F
S1130370843409F471C0853448F4823499F18334A7
S113038008F04DC0813409F083C00FC0823651F1AA
S1130390833620F4813609F07BC007C0833609F424
S11303A03EC0843609F074C057C0413069F42BB3A1
S11303B081E090E0AC0102C0440F551F6A95E2F75A
S11303C0BA01622B6BBB08952BB381E090E0AC01C2
S11303D002C0440F551F6A95E2F7BA016095622383
S11303E06BBB0895413069F428B381E090E0AC011F
S11303F002C0440F551F6A95E2F7BA01622B68BB2D
S1130400089528B381E090E0AC0102C0440F551F69
S11304106A95E2F7BA016095622368BB089541309A
S113042069F425B381E090E0AC0102C0440F551F8C
S11304306A95E2F7BA01622B65BB089525B381E0A2
S113044090E0AC0102C0440F551F6A95E2F7BA016F
S11304506095622365BB0895413069F422B381E05D
S113046090E0AC0102C0440F551F6A95E2F7BA014F
S1130470622B62BB089522B381E090E0AC0102C01C
S1130480440F551F6A95E2F7BA016095622362BB77
S11304900895843409F44EC0853440F4823431F133
S11304A08334B0F5813409F057C00EC08236F1F0C0
S11304B0833620F4813609F04FC006C0833641F1FB
S11304C0843609F049C036C029B381E090E0062E95
S11304D002C0880F991F0A94E2F730E08223932325
S11304E002C0969587956A95E2F7089526B381E050
S11304F090E0062E02C0880F991F0A94E2F730E0BC
S11305008223932302C0969587956A95E2F708950E
S113051023B381E090E0062E02C0880F991F0A944D
S1130520E2F730E08223932302C0969587956A957B
S1130530E2F7089520B381E090E0062E02C0880F10
S1130540991F0A94E2F730E08223932302C0969520
S113055087956A95E2F7089580E00895843409F454
S11305603DC0853440F48234F9F0833450F581344D
S113057009F040C00CC08236B9F0833618F48136D5
S1130580C9F505C08336E9F08436A1F527C02BB33D
S113059081E090E0AC0102C0440F551F6A95E2F778
S11305A0BA0162276BBB089528B381E090E0AC01E7
S11305B002C0440F551F6A95E2F7BA01622768BB6F
S11305C0089525B381E090E0AC0102C0440F551FAB
S11305D06A95E2F7BA01622765BB089522B381E008
S11305E090E0AC0102C0440F551F6A95E2F7BA01CE
S11305F0622762BB08958434D9F0853438F4823498
S113060099F0833498F48134A1F40CC0823661F0FB
S1130610833618F4813669F405C0833639F084369C
S113062041F406C06ABB089567BB089564BB08958E
S113063061BB08958434D9F0853438F4823499F058
S1130640833498F48134A1F40CC0823661F083368B
S113065018F4813669F405C0833639F0843641F4E0
S113066006C06BBB089568BB089565BB089562BB63
S113067008958434D9F0853438F4823499F083347D
S113068098F48134A9F40CC0823661F0833618F4EE
S1130690813671F405C0833639F0843649F406C0D6
S11306A089B3089586B3089583B3089580B30895F4
S11306B080E008956F70823489F0833418F48134B3
S11306C009F505C0833489F08434E1F415C08BB393
S11306D0807F8BBB8BB3682B6BBB089588B3807F03
S11306E088BB88B3682B68BB089585B3807F85BBBE
S11306F085B3682B65BB089582B3807F82BB82B3C8
S1130700682B62BB08956295607F823489F08334DC
S113071018F4813409F505C0833489F08434E1F494
S113072015C08BB38F708BBB8BB3682B6BBB0895D9
S113073088B38F7088BB88B3682B68BB089585B372
S11307408F7085BB85B3682B65BB089582B38F70AA
S113075082BB82B3682B62BB0895823451F1833427
S113076020F4813409F07BC007C0833409F43EC00F
S1130770843409F074C057C0413069F42BB381E06C
S113078090E0AC0102C0440F551F6A95E2F7BA012C
S1130790622B6BBB08952BB381E090E0AC0102C0E7
S11307A0440F551F6A95E2F7BA01609562236BBB4B
S11307B00895413069F428B381E090E0AC0102C0AF
S11307C0440F551F6A95E2F7BA01622B68BB08957E
S11307D028B381E090E0AC0102C0440F551F6A9534
S11307E0E2F7BA016095622368BB0895413069F469
S11307F025B381E090E0AC0102C0440F551F6A9517
S1130800E2F7BA01622B65BB089525B381E090E05D
S1130810AC0102C0440F551F6A95E2F7BA01609516
S1130820622365BB0895413069F422B381E090E00E
S1130830AC0102C0440F551F6A95E2F7BA01622B5E
S113084062BB089522B381E090E0AC0102C0440F82
S1130850551F6A95E2F7BA016095622362BB089559
S11308608EBB9FBB6DBBE29AE19AE199FECF0895DE
S11308708EBB9FBBE09A8DB3089584E460E041E0B1
S11308800E94270184E461E041E00E94270184E49E
S113089062E041E00E94270184E463E041E00E94B9
S11308A0270184E464E040E00E94270184E465E0D9
S11308B040E00E94270184E466E040E00E942701B2
S11308C084E467E040E00E94270108950F931F939A
S11308D0CF93DF93CDB7DEB760970FB6F894DEBF42
S11308E00FBECDBFDE011196E0E6F0E080E101909D
S11308F00D928150E1F700E084E460E041E00E9461
S1130900B80184E461E041E00E94B80184E462E05B
S113091041E00E94B80184E463E041E00E94B80130
S113092084E4602F40E00E94B80110E0612F6C5F06
S113093084E40E944902882361F4E02FF0E0EE0F82
S1130940FF1FEE0FFF1FE10FF11DEC0FFD1F818153
S113095004C01F5F143051F70BC060960FB6F894B3
S1130960DEBF0FBECDBFDF91CF911F910F910895D0
S11309700F5F043009F68FEFF0CF82E460E041E0CE
S11309800E94B8018FE99FE00197F1F700C00000D1
S113099082E460E040E00E94B8018FE99FE00197A3
S11309A0F1F700C000000895CF93C82F682F629517
S11309B06F7081E40E94830382E461E040E00E945E
S11309C0B8010E94BD0481E46C2F0E94830382E479
S11309D061E040E00E94B8010E94BD048FEC97E002
S11309E00197F1F700C00000CF9108958FEF91EEC9
S11309F0A4E081509040A040E1F700C0000081E4F1
S1130A0064E041E00E94270181E465E041E00E9446
S1130A10270181E466E041E00E94270181E467E068
S1130A2041E00E94270182E460E041E00E94270146
S1130A3082E461E041E00E94270182E462E041E057
S1130A400E94270182E462E040E00E94B80182E053
S1130A500E94D404AFE1BEE41197F1F700C0000096
S1130A6088E20E94D4048FEC97E00197F1F700C06C
S1130A7000008EE00E94D404AFECB7E01197F1F7C8
S1130A8000C0000081E00E94D4048FE19EE401973D
S1130A90F1F700C0000086E00E94D404AFECB7E098
S1130AA01197F1F700C000000895CF93C82F682F65
S1130AB062956F7081E40E94830382E461E041E007
S1130AC00E94B8010E94BD0481E46C2F0E9483033C
S1130AD082E461E041E00E94B8010E94BD048FEC11
S1130AE097E00197F1F700C00000CF910895CF93EC
S1130AF0DF93EC018881882331F021960E9455050B
S1130B0089918823D9F7DF91CF91089581E00E94DC
S1130B10D4048FE19EE40197F1F700C0000008952A
S1130B20282F2150223060F4662361F0813019F4BB
S1130B30962F915808C0823031F4962F915403C0F7
S1130B4090E801C090E8892F0E94D4048FEC97E0CC
S1130B500197F1F700C0000008952F923F924F9241
S1130B605F926F927F928F929F92AF92BF92DF9229
S1130B70EF92FF920F931F93CF93DF930E94F6049B
S1130B800E943D0482E463E00E9449008CE00E94DC
S1130B90D40480E290E00E9438048F3FA1F580E7FE
S1130BA090E00E947705C1E2D0E00E946604182F0D
S1130BB08F3FD9F30E9455058FEF94E3ACE0815049
S1130BC09040A040E1F700C000006C2F675181E025
S1130BD00E9490058AE20E9455058FEF94E3ACE0F1
S1130BE081509040A040E1F700C00000CE01612F89
S1130BF00E9430042196C532D105B9F680E290E016
S1130C0060E00E94300402E30F2EFAE7AF2EF0E01A
S1130C10BF2EF02D0F2EFAEDEF2EF0E0FF2EF02D6B
S1130C200F2EFCE0DF2EF02D0F2EFBED4F2EF0E00B
S1130C305F2EF02D0F2EFCED2F2EF0E03F2EF02D29
S1130C400F2EF2EA8F2EF0E09F2EF02D0F2EF3EBF5
S1130C506F2EF0E07F2EF02D81E00E94D404C501B8
S1130C600E947705E7011D2D0E94660488838F3F4B
S1130C70D9F30E9455058FEF94E3ACE08150904086
S1130C80A040E1F700C0000081E0612F0E949005C0
S1130C908AE20E9455058FEF94E3ACE081509040C6
S1130CA0A040E1F700C000001F5F21961031E1F67B
S1130CB081E290E00E943804D7019C918917E1F504
S1130CC082E290E00E943804F20190818917A1F534
S1130CD083E290E00E943804D1019C91891761F568
S1130CE083E290E00E943804EDEDF0E090818917F2
S1130CF019F581E00E94D40486E890E00E9477050B
S1130D0082E061E00E94900582E463E041E00E9499
S1130D10960085E990E00E9477058FE79AE1A6E0C6
S1130D2081509040A040E1F700C0000082E463E0FD
S1130D3040E00E9496005EC0003371F181E00E94A1
S1130D40D404C4010E94770582E463E041E00E9478
S1130D5096008FE79AE1A6E081509040A040E1F729
S1130D6000C0000082E463E040E00E94960082E05C
S1130D7061E00E949005802F0E945505C3010E94E6
S1130D8077058FEF99E6A8E181509040A040E1F704
S1130D9000C00000015060CF81E00E94D4048FEBBA
S1130DA090E00E94770582E061E00E9490058EEC5D
S1130DB090E00E947705C0E182E463E041E00E9494
S1130DC096008FEF90E7A2E081509040A040E1F7B9
S1130DD000C0000082E463E040E00E9496008FEFD0
S1130DE090E7A2E081509040A040E1F700C00000ED
S1130DF0C15011F780E090E0DF91CF911F910F91E6
S1130E00FF90EF90DF90BF90AF909F908F907F9076
S1130E106F905F904F903F902F900895F894FFCF7C
S1130E203132332F3435362A3738392D41303D2B82
S1130E3053455420504153533A00436865636B2033
S1130E40706173733A0052696768742070617373D8
S1130E50776F72640053616665206973206F7065F3
S1130E606E0057726F6E672070617373776F726470
S1130E70202100205472696573206C6566740077C4
S1130E80726F6E672070617373776F726400536161
S10D0E90666520436C6F736564000F
S9030000FC
